10001941MUS TA F A     YILMAZ         1915168000000000000000
10002942M EH M ET      AYDIN          1923302000000000000000
10003942GE RE K SI Z   DATA           1923302000000000000000
10004942FA LA N        BOYLE          1923302000000000000000
